{
  "contractName": "DappTaxi",
  "abi": [
    {
      "anonymous": false,
      "inputs": [
        {
          "indexed": false,
          "internalType": "uint256",
          "name": "bookingIndex",
          "type": "uint256"
        }
      ],
      "name": "BookingAccepted",
      "type": "event"
    },
    {
      "anonymous": false,
      "inputs": [
        {
          "indexed": false,
          "internalType": "uint256",
          "name": "bookingIndex",
          "type": "uint256"
        }
      ],
      "name": "BookingCancelled",
      "type": "event"
    },
    {
      "anonymous": false,
      "inputs": [
        {
          "indexed": false,
          "internalType": "uint256",
          "name": "bookingIndex",
          "type": "uint256"
        }
      ],
      "name": "BookingCompleted",
      "type": "event"
    },
    {
      "anonymous": false,
      "inputs": [
        {
          "indexed": false,
          "internalType": "uint256",
          "name": "bookingIndex",
          "type": "uint256"
        }
      ],
      "name": "BookingCreated",
      "type": "event"
    },
    {
      "inputs": [
        {
          "internalType": "string",
          "name": "passengerInfo",
          "type": "string"
        },
        {
          "internalType": "string",
          "name": "originLocation",
          "type": "string"
        },
        {
          "internalType": "string",
          "name": "destLocation",
          "type": "string"
        },
        {
          "internalType": "uint256",
          "name": "price",
          "type": "uint256"
        }
      ],
      "name": "createBooking",
      "outputs": [],
      "stateMutability": "payable",
      "type": "function",
      "payable": true
    },
    {
      "inputs": [
        {
          "internalType": "uint256",
          "name": "index",
          "type": "uint256"
        }
      ],
      "name": "getBooking",
      "outputs": [
        {
          "internalType": "address",
          "name": "",
          "type": "address"
        },
        {
          "internalType": "uint256",
          "name": "",
          "type": "uint256"
        },
        {
          "internalType": "string",
          "name": "",
          "type": "string"
        },
        {
          "internalType": "address",
          "name": "",
          "type": "address"
        },
        {
          "internalType": "string",
          "name": "",
          "type": "string"
        },
        {
          "internalType": "string",
          "name": "",
          "type": "string"
        },
        {
          "internalType": "string",
          "name": "",
          "type": "string"
        },
        {
          "internalType": "string",
          "name": "",
          "type": "string"
        }
      ],
      "stateMutability": "view",
      "type": "function",
      "constant": true
    },
    {
      "inputs": [],
      "name": "getBookingCount",
      "outputs": [
        {
          "internalType": "uint256",
          "name": "",
          "type": "uint256"
        }
      ],
      "stateMutability": "view",
      "type": "function",
      "constant": true
    },
    {
      "inputs": [
        {
          "internalType": "uint256",
          "name": "index",
          "type": "uint256"
        }
      ],
      "name": "cancelBooking",
      "outputs": [],
      "stateMutability": "nonpayable",
      "type": "function"
    },
    {
      "inputs": [
        {
          "internalType": "uint256",
          "name": "index",
          "type": "uint256"
        },
        {
          "internalType": "string",
          "name": "driverInfo",
          "type": "string"
        }
      ],
      "name": "acceptBooking",
      "outputs": [],
      "stateMutability": "nonpayable",
      "type": "function"
    },
    {
      "inputs": [
        {
          "internalType": "uint256",
          "name": "index",
          "type": "uint256"
        }
      ],
      "name": "completeBooking",
      "outputs": [],
      "stateMutability": "nonpayable",
      "type": "function"
    }
  ],
  "bytecode": "0x608060405234801561001057600080fd5b506119ba806100206000396000f3fe6080604052600436106100555760003560e01c80630dca825e1461005a5780631a2b3431146100835780636a5c841a146100ac57806379362cbb146100f0578063d67bad5a1461010c578063d861c24414610135575b600080fd5b34801561006657600080fd5b50610081600480360381019061007c9190611140565b610160565b005b34801561008f57600080fd5b506100aa60048036038101906100a59190611140565b61045f565b005b3480156100b857600080fd5b506100d360048036038101906100ce9190611140565b61075e565b6040516100e798979695949392919061124d565b60405180910390f35b61010a60048036038101906101059190611423565b610b70565b005b34801561011857600080fd5b50610133600480360381019061012e91906114de565b610d9c565b005b34801561014157600080fd5b5061014a61107e565b604051610157919061153a565b60405180910390f35b6000818154811061017457610173611555565b5b906000526020600020906008020160000160009054906101000a900473ffffffffffffffffffffffffffffffffffffffff1673ffffffffffffffffffffffffffffffffffffffff163373ffffffffffffffffffffffffffffffffffffffff161480156102c857506102c7600082815481106101f2576101f1611555565b5b9060005260206000209060080201600701805461020e906115b3565b80601f016020809104026020016040519081016040528092919081815260200182805461023a906115b3565b80156102875780601f1061025c57610100808354040283529160200191610287565b820191906000526020600020905b81548152906001019060200180831161026a57829003601f168201915b50505050506040518060400160405280600381526020017f6e6577000000000000000000000000000000000000000000000000000000000081525061108a565b5b610307576040517f08c379a00000000000000000000000000000000000000000000000000000000081526004016102fe90611630565b60405180910390fd5b600080828154811061031c5761031b611555565b5b906000526020600020906008020160000160009054906101000a900473ffffffffffffffffffffffffffffffffffffffff1690508073ffffffffffffffffffffffffffffffffffffffff166108fc6000848154811061037e5761037d611555565b5b9060005260206000209060080201600101549081150290604051600060405180830381858888f193505050501580156103bb573d6000803e3d6000fd5b506040518060400160405280600981526020017f63616e63656c6c656400000000000000000000000000000000000000000000008152506000838154811061040657610405611555565b5b9060005260206000209060080201600701908161042391906117fc565b507ff774c001cb52a3566b767ed6e37c92706acb2b80a3ff6049e2849cd62725d08582604051610453919061153a565b60405180910390a15050565b6000818154811061047357610472611555565b5b906000526020600020906008020160000160009054906101000a900473ffffffffffffffffffffffffffffffffffffffff1673ffffffffffffffffffffffffffffffffffffffff163373ffffffffffffffffffffffffffffffffffffffff161480156105c757506105c6600082815481106104f1576104f0611555565b5b9060005260206000209060080201600701805461050d906115b3565b80601f0160208091040260200160405190810160405280929190818152602001828054610539906115b3565b80156105865780601f1061055b57610100808354040283529160200191610586565b820191906000526020600020905b81548152906001019060200180831161056957829003601f168201915b50505050506040518060400160405280600681526020017f6f6e74726970000000000000000000000000000000000000000000000000000081525061108a565b5b610606576040517f08c379a00000000000000000000000000000000000000000000000000000000081526004016105fd90611630565b60405180910390fd5b600080828154811061061b5761061a611555565b5b906000526020600020906008020160030160009054906101000a900473ffffffffffffffffffffffffffffffffffffffff1690508073ffffffffffffffffffffffffffffffffffffffff166108fc6000848154811061067d5761067c611555565b5b9060005260206000209060080201600101549081150290604051600060405180830381858888f193505050501580156106ba573d6000803e3d6000fd5b506040518060400160405280600981526020017f636f6d706c6574656400000000000000000000000000000000000000000000008152506000838154811061070557610704611555565b5b9060005260206000209060080201600701908161072291906117fc565b507fe70f5cb5ecde9644c195a97cf45a506de023d1d170cd972f04441fafd993f15082604051610752919061153a565b60405180910390a15050565b600080606060006060806060806000808a815481106107805761077f611555565b5b9060005260206000209060080201604051806101000160405290816000820160009054906101000a900473ffffffffffffffffffffffffffffffffffffffff1673ffffffffffffffffffffffffffffffffffffffff1673ffffffffffffffffffffffffffffffffffffffff1681526020016001820154815260200160028201805461080a906115b3565b80601f0160208091040260200160405190810160405280929190818152602001828054610836906115b3565b80156108835780601f1061085857610100808354040283529160200191610883565b820191906000526020600020905b81548152906001019060200180831161086657829003601f168201915b505050505081526020016003820160009054906101000a900473ffffffffffffffffffffffffffffffffffffffff1673ffffffffffffffffffffffffffffffffffffffff1673ffffffffffffffffffffffffffffffffffffffff1681526020016004820180546108f2906115b3565b80601f016020809104026020016040519081016040528092919081815260200182805461091e906115b3565b801561096b5780601f106109405761010080835404028352916020019161096b565b820191906000526020600020905b81548152906001019060200180831161094e57829003601f168201915b50505050508152602001600582018054610984906115b3565b80601f01602080910402602001604051908101604052809291908181526020018280546109b0906115b3565b80156109fd5780601f106109d2576101008083540402835291602001916109fd565b820191906000526020600020905b8154815290600101906020018083116109e057829003601f168201915b50505050508152602001600682018054610a16906115b3565b80601f0160208091040260200160405190810160405280929190818152602001828054610a42906115b3565b8015610a8f5780601f10610a6457610100808354040283529160200191610a8f565b820191906000526020600020905b815481529060010190602001808311610a7257829003601f168201915b50505050508152602001600782018054610aa8906115b3565b80601f0160208091040260200160405190810160405280929190818152602001828054610ad4906115b3565b8015610b215780601f10610af657610100808354040283529160200191610b21565b820191906000526020600020905b815481529060010190602001808311610b0457829003601f168201915b5050505050815250509050806000015181602001518260400151836060015184608001518560a001518660c001518760e001519850985098509850985098509850985050919395975091939597565b60006040518061010001604052803373ffffffffffffffffffffffffffffffffffffffff168152602001838152602001868152602001600073ffffffffffffffffffffffffffffffffffffffff1681526020016040518060200160405280600081525081526020018581526020018481526020016040518060400160405280600381526020017f6e65770000000000000000000000000000000000000000000000000000000000815250815250908060018154018082558091505060019003906000526020600020906008020160009091909190915060008201518160000160006101000a81548173ffffffffffffffffffffffffffffffffffffffff021916908373ffffffffffffffffffffffffffffffffffffffff160217905550602082015181600101556040820151816002019081610cac91906117fc565b5060608201518160030160006101000a81548173ffffffffffffffffffffffffffffffffffffffff021916908373ffffffffffffffffffffffffffffffffffffffff1602179055506080820151816004019081610d0991906117fc565b5060a0820151816005019081610d1f91906117fc565b5060c0820151816006019081610d3591906117fc565b5060e0820151816007019081610d4b91906117fc565b5050507feff0c44eb012c0a3b8af8da61b04c9c7ee828fe9c5746869998c63319a21067c6001600080549050610d8191906118fd565b604051610d8e919061153a565b60405180910390a150505050565b600073ffffffffffffffffffffffffffffffffffffffff1660008381548110610dc857610dc7611555565b5b906000526020600020906008020160030160009054906101000a900473ffffffffffffffffffffffffffffffffffffffff1673ffffffffffffffffffffffffffffffffffffffff16148015610f055750610f0460008381548110610e2f57610e2e611555565b5b90600052602060002090600802016007018054610e4b906115b3565b80601f0160208091040260200160405190810160405280929190818152602001828054610e77906115b3565b8015610ec45780601f10610e9957610100808354040283529160200191610ec4565b820191906000526020600020905b815481529060010190602001808311610ea757829003601f168201915b50505050506040518060400160405280600381526020017f6e6577000000000000000000000000000000000000000000000000000000000081525061108a565b5b610f44576040517f08c379a0000000000000000000000000000000000000000000000000000000008152600401610f3b90611630565b60405180910390fd5b3360008381548110610f5957610f58611555565b5b906000526020600020906008020160030160006101000a81548173ffffffffffffffffffffffffffffffffffffffff021916908373ffffffffffffffffffffffffffffffffffffffff1602179055508060008381548110610fbd57610fbc611555565b5b90600052602060002090600802016004019081610fda91906117fc565b506040518060400160405280600681526020017f6f6e7472697000000000000000000000000000000000000000000000000000008152506000838154811061102557611024611555565b5b9060005260206000209060080201600701908161104291906117fc565b507fae49cce08cd6f27fffbd586d871496cddf9f50db908d9ca4cf48a84b88d55e6b82604051611072919061153a565b60405180910390a15050565b60008080549050905090565b6000815183511461109e57600090506110f0565b816040516020016110af919061196d565b60405160208183030381529060405280519060200120836040516020016110d6919061196d565b604051602081830303815290604052805190602001201490505b92915050565b6000604051905090565b600080fd5b600080fd5b6000819050919050565b61111d8161110a565b811461112857600080fd5b50565b60008135905061113a81611114565b92915050565b60006020828403121561115657611155611100565b5b60006111648482850161112b565b91505092915050565b600073ffffffffffffffffffffffffffffffffffffffff82169050919050565b60006111988261116d565b9050919050565b6111a88161118d565b82525050565b6111b78161110a565b82525050565b600081519050919050565b600082825260208201905092915050565b60005b838110156111f75780820151818401526020810190506111dc565b60008484015250505050565b6000601f19601f8301169050919050565b600061121f826111bd565b61122981856111c8565b93506112398185602086016111d9565b61124281611203565b840191505092915050565b600061010082019050611263600083018b61119f565b611270602083018a6111ae565b81810360408301526112828189611214565b9050611291606083018861119f565b81810360808301526112a38187611214565b905081810360a08301526112b78186611214565b905081810360c08301526112cb8185611214565b905081810360e08301526112df8184611214565b90509998505050505050505050565b600080fd5b600080fd5b7f4e487b7100000000000000000000000000000000000000000000000000000000600052604160045260246000fd5b61133082611203565b810181811067ffffffffffffffff8211171561134f5761134e6112f8565b5b80604052505050565b60006113626110f6565b905061136e8282611327565b919050565b600067ffffffffffffffff82111561138e5761138d6112f8565b5b61139782611203565b9050602081019050919050565b82818337600083830152505050565b60006113c66113c184611373565b611358565b9050828152602081018484840111156113e2576113e16112f3565b5b6113ed8482856113a4565b509392505050565b600082601f83011261140a576114096112ee565b5b813561141a8482602086016113b3565b91505092915050565b6000806000806080858703121561143d5761143c611100565b5b600085013567ffffffffffffffff81111561145b5761145a611105565b5b611467878288016113f5565b945050602085013567ffffffffffffffff81111561148857611487611105565b5b611494878288016113f5565b935050604085013567ffffffffffffffff8111156114b5576114b4611105565b5b6114c1878288016113f5565b92505060606114d28782880161112b565b91505092959194509250565b600080604083850312156114f5576114f4611100565b5b60006115038582860161112b565b925050602083013567ffffffffffffffff81111561152457611523611105565b5b611530858286016113f5565b9150509250929050565b600060208201905061154f60008301846111ae565b92915050565b7f4e487b7100000000000000000000000000000000000000000000000000000000600052603260045260246000fd5b7f4e487b7100000000000000000000000000000000000000000000000000000000600052602260045260246000fd5b600060028204905060018216806115cb57607f821691505b6020821081036115de576115dd611584565b5b50919050565b7f76616c69646174696f6e206661696c65642e0000000000000000000000000000600082015250565b600061161a6012836111c8565b9150611625826115e4565b602082019050919050565b600060208201905081810360008301526116498161160d565b9050919050565b60008190508160005260206000209050919050565b60006020601f8301049050919050565b600082821b905092915050565b6000600883026116b27fffffffffffffffffffffffffffffffffffffffffffffffffffffffffffffffff82611675565b6116bc8683611675565b95508019841693508086168417925050509392505050565b6000819050919050565b60006116f96116f46116ef8461110a565b6116d4565b61110a565b9050919050565b6000819050919050565b611713836116de565b61172761171f82611700565b848454611682565b825550505050565b600090565b61173c61172f565b61174781848461170a565b505050565b5b8181101561176b57611760600082611734565b60018101905061174d565b5050565b601f8211156117b05761178181611650565b61178a84611665565b81016020851015611799578190505b6117ad6117a585611665565b83018261174c565b50505b505050565b600082821c905092915050565b60006117d3600019846008026117b5565b1980831691505092915050565b60006117ec83836117c2565b9150826002028217905092915050565b611805826111bd565b67ffffffffffffffff81111561181e5761181d6112f8565b5b61182882546115b3565b61183382828561176f565b600060209050601f8311600181146118665760008415611854578287015190505b61185e85826117e0565b8655506118c6565b601f19841661187486611650565b60005b8281101561189c57848901518255600182019150602085019450602081019050611877565b868310156118b957848901516118b5601f8916826117c2565b8355505b6001600288020188555050505b505050505050565b7f4e487b7100000000000000000000000000000000000000000000000000000000600052601160045260246000fd5b60006119088261110a565b91506119138361110a565b925082820390508181111561192b5761192a6118ce565b5b92915050565b600081905092915050565b6000611947826111bd565b6119518185611931565b93506119618185602086016111d9565b80840191505092915050565b6000611979828461193c565b91508190509291505056fea26469706673582212206136ae9ac5f97afcb9eb329820e44e1b5aa0df5685225ffdce1481fa5310784364736f6c63430008110033",
  "immutableReferences": {},
  "source": "pragma solidity >=0.4.22 <0.9.0;\n\n//Anything that you declare inside the contract is gonna be deployed to the blockchain\n\n// commads to run : \n// 1)npm install -g @remix-project/remixd\n// 2) remixd -s .\n\n//All transactions are in Wei\n/*\nUnit\t    wei value\twei\t                            ether value\nwei\t        1 wei\t    1\t                            10^-18 ETH\nkwei\t    10^3 wei\t1,000\t                        10^-15 ETH\nmwei\t    10^6 wei\t1,000,000\t                    10^-12 ETH\ngwei\t    10^9 wei\t1,000,000,000\t                10^-9 ETH\nmicroether\t10^12 wei\t1,000,000,000,000\t            10^-6 ETH\nmilliether\t10^15 wei\t1,000,000,000,000,000\t        10^-3 ETH\nether\t    10^18 wei\t1,000,000,000,000,000,000\t    1 ETH */\n\n// Exchange rate euro to wei : \n// 1 Wei  =  0.004038 EUR\n// 1 EUR  =  247.671 Wei\n\n\ncontract DappTaxi {\n   // address public owner = msg.sender; // person that has created this smartcontract (wallet address)\n\n    //Ride booking\n    struct Booking {\n        address passengerAddress; //contract owner wallet basically\n        uint256 price;\n        string passengerInfo;\n        address driverAddress; //driver Wallet\n        string driverInfo;\n      //  uint256 createdAt;\n        string originLocation;\n        string destLocation;\n //       uint256 totalCost;\n        string status; // new, cancelled, accepted, ontrip, completed\n    }\n\n    Booking[] internal bookings; //public array of bookings\n\n     // declare events\n    event BookingCreated(uint256 bookingIndex);\n    event BookingAccepted(uint256 bookingIndex);\n    event BookingCompleted(uint256 bookingIndex);\n    event BookingCancelled(uint256 bookingIndex);\n\n    // passenger can create a booking\n    function createBooking(\n        string memory passengerInfo,\n        string memory originLocation,\n        string memory destLocation,\n        uint256 price\n    ) public payable {\n\n        bookings.push(\n            Booking(\n                msg.sender,     // passengerAddress = person that has created this smartcontract (wallet address)\n                price,          // price \n                passengerInfo, \n                address(0x0),   //driverAddress (wallet)\n                \"\",             //driverInfo\n            //    block.timestamp,\n                originLocation,\n                destLocation,\n           //     msg.value,\n                \"new\"\n            )\n        );\n\n        emit BookingCreated(bookings.length-1);\n    }\n\n\n    \n\n    function getBooking(uint256 index)\n        public\n        view\n        returns (\n            address,\n            uint256,\n            string memory,\n            address,\n            string memory,\n         //   uint256,\n            string memory,\n            string memory,\n         //   uint256,\n            string memory\n        )\n    {\n        Booking memory book = bookings[index];\n        return (\n            book.passengerAddress,\n            book.price,\n            book.passengerInfo,\n            book.driverAddress,\n            book.driverInfo,\n         //   book.createdAt,\n            book.originLocation,\n            book.destLocation,\n      //      book.totalCost,\n            book.status\n        );\n    }\n\n    function getBookingCount() public view returns (uint256) {\n        return bookings.length;\n    }\n\n    // passenger can cancel booking, cost will be refund\n    function cancelBooking(uint256 index) public {\n        // validation\n        require(\n            msg.sender == bookings[index].passengerAddress &&\n                compareStrings(bookings[index].status, \"new\"),\n            \"validation failed.\"\n        );\n     //   bookings[index].passengerAddress.transfer.to(bookings[index].totalCost);\n        address payable passengerWallet = payable(bookings[index].passengerAddress); \n        passengerWallet.transfer(bookings[index].price);\n        bookings[index].status = \"cancelled\";\n        emit BookingCancelled(index);\n    }\n\n    // driver accepts booking created from passenger\n    function acceptBooking(\n        uint256 index, //booking Index\n      //  address driverAddress,\n        string memory driverInfo) \n        public  {\n        // validation\n        require(\n            bookings[index].driverAddress == address(0x0) && \n                compareStrings(bookings[index].status, \"new\"),\n            \"validation failed.\"\n        );\n        bookings[index].driverAddress = msg.sender;\n        bookings[index].driverInfo = driverInfo;\n        bookings[index].status = \"ontrip\";\n        emit BookingAccepted(index);\n    }\n\n    // passenger must to confirm trip completed\n    function completeBooking(uint256 index) public {\n        // // validation\n        require (\n            msg.sender == bookings[index].passengerAddress &&\n                compareStrings(bookings[index].status, \"ontrip\"),\n            \"validation failed.\"\n        );\n        address payable driverWallet = payable(bookings[index].driverAddress); \n        driverWallet.transfer(bookings[index].price);\n        bookings[index].status = \"completed\";\n        emit BookingCompleted(index);\n    }\n\n    function compareStrings(string memory a, string memory b)\n        internal\n        pure\n        returns (bool)\n    {\n        if (bytes(a).length != bytes(b).length) {\n            return false;\n        } else {\n            return\n                keccak256(abi.encodePacked(a)) ==\n                keccak256(abi.encodePacked(b));\n        }\n    }\n}\n",
  "sourcePath": "C:\\Users\\Admin\\Desktop\\Dapp_Taxi\\contracts\\DappTaxi.sol",
  "compiler": {
    "name": "solc",
    "version": "0.8.17+commit.8df45f5f.Emscripten.clang"
  },
  "schemaVersion": "3.4.10",
  "updatedAt": "2022-11-27T13:48:00.771Z",
  "networkType": "ethereum",
  "devdoc": {
    "kind": "dev",
    "methods": {},
    "version": 1
  },
  "userdoc": {
    "kind": "user",
    "methods": {},
    "version": 1
  }
}